{
  "_format": "hh3-artifact-1",
  "contractName": "SecureAuction",
  "sourceName": "contracts/SecureAuction.sol",
  "abi": [
    {
      "inputs": [
        {
          "internalType": "uint256",
          "name": "duration",
          "type": "uint256"
        }
      ],
      "stateMutability": "nonpayable",
      "type": "constructor"
    },
    {
      "anonymous": false,
      "inputs": [
        {
          "indexed": false,
          "internalType": "address",
          "name": "winner",
          "type": "address"
        },
        {
          "indexed": false,
          "internalType": "uint256",
          "name": "amount",
          "type": "uint256"
        }
      ],
      "name": "AuctionEnded",
      "type": "event"
    },
    {
      "anonymous": false,
      "inputs": [
        {
          "indexed": false,
          "internalType": "address",
          "name": "bidder",
          "type": "address"
        },
        {
          "indexed": false,
          "internalType": "uint256",
          "name": "amount",
          "type": "uint256"
        }
      ],
      "name": "BidPlaced",
      "type": "event"
    },
    {
      "anonymous": false,
      "inputs": [
        {
          "indexed": false,
          "internalType": "address",
          "name": "bidder",
          "type": "address"
        },
        {
          "indexed": false,
          "internalType": "uint256",
          "name": "amount",
          "type": "uint256"
        }
      ],
      "name": "Withdrawal",
      "type": "event"
    },
    {
      "inputs": [],
      "name": "auctionEnd",
      "outputs": [
        {
          "internalType": "uint256",
          "name": "",
          "type": "uint256"
        }
      ],
      "stateMutability": "view",
      "type": "function"
    },
    {
      "inputs": [],
      "name": "bid",
      "outputs": [],
      "stateMutability": "payable",
      "type": "function"
    },
    {
      "inputs": [],
      "name": "endAuction",
      "outputs": [],
      "stateMutability": "nonpayable",
      "type": "function"
    },
    {
      "inputs": [],
      "name": "ended",
      "outputs": [
        {
          "internalType": "bool",
          "name": "",
          "type": "bool"
        }
      ],
      "stateMutability": "view",
      "type": "function"
    },
    {
      "inputs": [],
      "name": "highestBid",
      "outputs": [
        {
          "internalType": "uint256",
          "name": "",
          "type": "uint256"
        }
      ],
      "stateMutability": "view",
      "type": "function"
    },
    {
      "inputs": [],
      "name": "highestBidder",
      "outputs": [
        {
          "internalType": "address",
          "name": "",
          "type": "address"
        }
      ],
      "stateMutability": "view",
      "type": "function"
    },
    {
      "inputs": [],
      "name": "minIncrement",
      "outputs": [
        {
          "internalType": "uint256",
          "name": "",
          "type": "uint256"
        }
      ],
      "stateMutability": "view",
      "type": "function"
    },
    {
      "inputs": [],
      "name": "owner",
      "outputs": [
        {
          "internalType": "address",
          "name": "",
          "type": "address"
        }
      ],
      "stateMutability": "view",
      "type": "function"
    },
    {
      "inputs": [
        {
          "internalType": "address",
          "name": "",
          "type": "address"
        }
      ],
      "name": "pendingReturns",
      "outputs": [
        {
          "internalType": "uint256",
          "name": "",
          "type": "uint256"
        }
      ],
      "stateMutability": "view",
      "type": "function"
    },
    {
      "inputs": [],
      "name": "withdraw",
      "outputs": [],
      "stateMutability": "nonpayable",
      "type": "function"
    }
  ],
  "bytecode": "0x6080604052662386f26fc100006004553480156019575f5ffd5b5060405161070f38038061070f8339810160408190526036916057565b5f80546001600160a01b03191633179055604f8142606d565b600155506091565b5f602082840312156066575f5ffd5b5051919050565b80820180821115608b57634e487b7160e01b5f52601160045260245ffd5b92915050565b6106718061009e5f395ff3fe60806040526004361061008f575f3560e01c80638afcb14d116100575780638afcb14d1461012d5780638da5cb5b1461014257806391f9015714610178578063d57bde7914610197578063fe67a54b146101ac575f5ffd5b806312fa6feb146100935780631998aeef146100c157806326b387bb146100cb5780632a24f46c146101045780633ccfd60b14610119575b5f5ffd5b34801561009e575f5ffd5b506005546100ac9060ff1681565b60405190151581526020015b60405180910390f35b6100c96101c0565b005b3480156100d6575f5ffd5b506100f66100e53660046105e9565b60066020525f908152604090205481565b6040519081526020016100b8565b34801561010f575f5ffd5b506100f660015481565b348015610124575f5ffd5b506100c96102f6565b348015610138575f5ffd5b506100f660045481565b34801561014d575f5ffd5b505f54610160906001600160a01b031681565b6040516001600160a01b0390911681526020016100b8565b348015610183575f5ffd5b50600254610160906001600160a01b031681565b3480156101a2575f5ffd5b506100f660035481565b3480156101b7575f5ffd5b506100c9610470565b60015442106102065760405162461bcd60e51b815260206004820152600d60248201526c105d58dd1a5bdb88195b991959609a1b60448201526064015b60405180910390fd5b6004546003546102169190610616565b3410156102655760405162461bcd60e51b815260206004820152601760248201527f42696420696e6372656d656e7420746f6f20736d616c6c00000000000000000060448201526064016101fd565b6003541561029f576003546002546001600160a01b03165f9081526006602052604081208054909190610299908490610616565b90915550505b600280546001600160a01b031916339081179091553460038190556040805192835260208301919091527f3fabff0a9c3ecd6814702e247fa9733e5d0aa69e3a38590f92cb18f623a2254d910160405180910390a1565b60075460ff161561033f5760405162461bcd60e51b81526020600482015260136024820152721499595b9d1c985b98de4819195d1958dd1959606a1b60448201526064016101fd565b6007805460ff19166001179055335f90815260066020526040902054806103935760405162461bcd60e51b81526020600482015260086024820152674e6f2066756e647360c01b60448201526064016101fd565b335f818152600660205260408082208290555190919083908381818185875af1925050503d805f81146103e1576040519150601f19603f3d011682016040523d82523d5f602084013e6103e6565b606091505b50509050806104295760405162461bcd60e51b815260206004820152600f60248201526e151c985b9cd9995c8819985a5b1959608a1b60448201526064016101fd565b60408051338152602081018490527f7fcf532c15f0a6db0bd6d0e038bea71d30d808c7d98cb3bf7268a95bf5081b65910160405180910390a150506007805460ff19169055565b6001544210156104b95760405162461bcd60e51b815260206004820152601460248201527341756374696f6e207374696c6c2061637469766560601b60448201526064016101fd565b60055460ff16156104fc5760405162461bcd60e51b815260206004820152600d60248201526c105b1c9958591e48195b991959609a1b60448201526064016101fd565b6005805460ff191660011790555f80546003546040516001600160a01b03909216918381818185875af1925050503d805f8114610554576040519150601f19603f3d011682016040523d82523d5f602084013e610559565b606091505b505090508061059c5760405162461bcd60e51b815260206004820152600f60248201526e151c985b9cd9995c8819985a5b1959608a1b60448201526064016101fd565b600254600354604080516001600160a01b03909316835260208301919091527fdaec4582d5d9595688c8c98545fdd1c696d41c6aeaeb636737e84ed2f5c00eda910160405180910390a150565b5f602082840312156105f9575f5ffd5b81356001600160a01b038116811461060f575f5ffd5b9392505050565b8082018082111561063557634e487b7160e01b5f52601160045260245ffd5b9291505056fea2646970667358221220e5a523b55d2d5d99d0fe401140d6873dfca32951e898428f871f68977dbf62a464736f6c634300081c0033",
  "linkReferences": {},
  "deployedLinkReferences": {},
  "immutableReferences": {},
  "inputSourceName": "project/contracts/SecureAuction.sol",
  "buildInfoId": "solc-0_8_28-3488ea731657b6c8b1b89c0a1fad1bdb3bb89af8"
}