{
  "_format": "hh3-artifact-1",
  "contractName": "HelloWorld",
  "sourceName": "contracts/HelloWorld.sol",
  "abi": [
    {
      "inputs": [],
      "name": "message",
      "outputs": [
        {
          "internalType": "string",
          "name": "",
          "type": "string"
        }
      ],
      "stateMutability": "view",
      "type": "function"
    }
  ],
  "bytecode": "0x60c0604052600b60809081526a12195b1b1bc815dbdc9b1960aa1b60a0525f9061002990826100d3565b50348015610035575f5ffd5b5061018d565b634e487b7160e01b5f52604160045260245ffd5b600181811c9082168061006357607f821691505b60208210810361008157634e487b7160e01b5f52602260045260245ffd5b50919050565b601f8211156100ce57805f5260205f20601f840160051c810160208510156100ac5750805b601f840160051c820191505b818110156100cb575f81556001016100b8565b50505b505050565b81516001600160401b038111156100ec576100ec61003b565b610100816100fa845461004f565b84610087565b6020601f821160018114610132575f831561011b5750848201515b5f19600385901b1c1916600184901b1784556100cb565b5f84815260208120601f198516915b828110156101615787850151825560209485019460019092019101610141565b508482101561017e57868401515f19600387901b60f8161c191681555b50505050600190811b01905550565b6101798061019a5f395ff3fe608060405234801561000f575f5ffd5b5060043610610029575f3560e01c8063e21f37ce1461002d575b5f5ffd5b61003561004b565b60405161004291906100d6565b60405180910390f35b5f80546100579061010b565b80601f01602080910402602001604051908101604052809291908181526020018280546100839061010b565b80156100ce5780601f106100a5576101008083540402835291602001916100ce565b820191905f5260205f20905b8154815290600101906020018083116100b157829003601f168201915b505050505081565b602081525f82518060208401528060208501604085015e5f604082850101526040601f19601f83011684010191505092915050565b600181811c9082168061011f57607f821691505b60208210810361013d57634e487b7160e01b5f52602260045260245ffd5b5091905056fea2646970667358221220c5f8a86f9961822e58506a962834bfa832b64eee0d593b7753bd4db3ee1c4c6264736f6c634300081c0033",
  "linkReferences": {},
  "deployedLinkReferences": {},
  "immutableReferences": {},
  "inputSourceName": "project/contracts/HelloWorld.sol",
  "buildInfoId": "solc-0_8_28-228acb324bae8b1974a8940eaa6d55967e87024d"
}