{
  "_format": "hh3-artifact-1",
  "contractName": "Insurance",
  "sourceName": "contracts/Insurance.sol",
  "abi": [
    {
      "inputs": [],
      "stateMutability": "nonpayable",
      "type": "constructor"
    },
    {
      "anonymous": false,
      "inputs": [
        {
          "indexed": false,
          "internalType": "uint256",
          "name": "policyId",
          "type": "uint256"
        }
      ],
      "name": "ClaimApproved",
      "type": "event"
    },
    {
      "anonymous": false,
      "inputs": [
        {
          "indexed": false,
          "internalType": "uint256",
          "name": "policyId",
          "type": "uint256"
        }
      ],
      "name": "ClaimFiled",
      "type": "event"
    },
    {
      "anonymous": false,
      "inputs": [
        {
          "indexed": false,
          "internalType": "uint256",
          "name": "policyId",
          "type": "uint256"
        }
      ],
      "name": "ClaimRejected",
      "type": "event"
    },
    {
      "anonymous": false,
      "inputs": [
        {
          "indexed": false,
          "internalType": "uint256",
          "name": "policyId",
          "type": "uint256"
        },
        {
          "indexed": false,
          "internalType": "address",
          "name": "holder",
          "type": "address"
        }
      ],
      "name": "PolicyPurchased",
      "type": "event"
    },
    {
      "inputs": [
        {
          "internalType": "uint256",
          "name": "policyId",
          "type": "uint256"
        }
      ],
      "name": "approveClaim",
      "outputs": [],
      "stateMutability": "nonpayable",
      "type": "function"
    },
    {
      "inputs": [
        {
          "internalType": "uint256",
          "name": "coverageAmount",
          "type": "uint256"
        }
      ],
      "name": "buyPolicy",
      "outputs": [],
      "stateMutability": "payable",
      "type": "function"
    },
    {
      "inputs": [
        {
          "internalType": "uint256",
          "name": "policyId",
          "type": "uint256"
        }
      ],
      "name": "fileClaim",
      "outputs": [],
      "stateMutability": "nonpayable",
      "type": "function"
    },
    {
      "inputs": [],
      "name": "owner",
      "outputs": [
        {
          "internalType": "address",
          "name": "",
          "type": "address"
        }
      ],
      "stateMutability": "view",
      "type": "function"
    },
    {
      "inputs": [
        {
          "internalType": "uint256",
          "name": "",
          "type": "uint256"
        }
      ],
      "name": "policies",
      "outputs": [
        {
          "internalType": "address",
          "name": "holder",
          "type": "address"
        },
        {
          "internalType": "uint256",
          "name": "premium",
          "type": "uint256"
        },
        {
          "internalType": "uint256",
          "name": "coverageAmount",
          "type": "uint256"
        },
        {
          "internalType": "bool",
          "name": "active",
          "type": "bool"
        },
        {
          "internalType": "bool",
          "name": "claimFiled",
          "type": "bool"
        }
      ],
      "stateMutability": "view",
      "type": "function"
    },
    {
      "inputs": [],
      "name": "policyCounter",
      "outputs": [
        {
          "internalType": "uint256",
          "name": "",
          "type": "uint256"
        }
      ],
      "stateMutability": "view",
      "type": "function"
    },
    {
      "inputs": [
        {
          "internalType": "uint256",
          "name": "policyId",
          "type": "uint256"
        }
      ],
      "name": "rejectClaim",
      "outputs": [],
      "stateMutability": "nonpayable",
      "type": "function"
    }
  ],
  "bytecode": "0x6080604052348015600e575f5ffd5b505f80546001600160a01b0319163317905561069a8061002d5f395ff3fe60806040526004361061006e575f3560e01c80638da5cb5b1161004c5780638da5cb5b146100c5578063d3e8948314610100578063d52c1bea1461018e578063d61909f9146101b1575f5ffd5b8063203411011461007257806346e301351461009357806379c88894146100b2575b5f5ffd5b34801561007d575f5ffd5b5061009161008c366004610629565b6101d0565b005b34801561009e575f5ffd5b506100916100ad366004610629565b6102bb565b6100916100c0366004610629565b6103d3565b3480156100d0575f5ffd5b505f546100e3906001600160a01b031681565b6040516001600160a01b0390911681526020015b60405180910390f35b34801561010b575f5ffd5b5061015861011a366004610629565b600260208190525f918252604090912080546001820154928201546003909201546001600160a01b0390911692919060ff8082169161010090041685565b604080516001600160a01b039096168652602086019490945292840191909152151560608301521515608082015260a0016100f7565b348015610199575f5ffd5b506101a360015481565b6040519081526020016100f7565b3480156101bc575f5ffd5b506100916101cb366004610629565b6104f6565b5f546001600160a01b0316331461021f5760405162461bcd60e51b815260206004820152600e60248201526d139bdd08185d5d1a1bdc9a5e995960921b60448201526064015b60405180910390fd5b5f8181526002602052604090206003810154610100900460ff166102765760405162461bcd60e51b815260206004820152600e60248201526d139bc818db185a5b48199a5b195960921b6044820152606401610216565b60038101805461ff00191690556040518281527f2aa44a1bb19392ef6a2fd220d2b1649a6dc1bebbfa2a6f2c496e2d39a3339d0e906020015b60405180910390a15050565b5f546001600160a01b031633146103055760405162461bcd60e51b815260206004820152600e60248201526d139bdd08185d5d1a1bdc9a5e995960921b6044820152606401610216565b5f8181526002602052604090206003810154610100900460ff1661035c5760405162461bcd60e51b815260206004820152600e60248201526d139bc818db185a5b48199a5b195960921b6044820152606401610216565b60038101805460ff19169055805460028201546040516001600160a01b039092169181156108fc0291905f818181858888f193505050501580156103a2573d5f5f3e3d5ffd5b506040518281527fd2d0ed0cccc8615643ade1eff3929a29ed8df75ebca85a3996e311c9b69e2289906020016102af565b5f34116104155760405162461bcd60e51b815260206004820152601060248201526f141c995b5a5d5b481c995c5d5a5c995960821b6044820152606401610216565b60018054905f61042483610640565b90915550506040805160a081018252338082523460208084019182528385018681526001606086018181525f60808801818152835482526002808752918a9020985189546001600160a01b0319166001600160a01b03909116178955955188840155925192870192909255905160039095018054935161ffff1990941695151561ff001916959095176101009315159390930292909217909355548351908152918201527f60d59b58b916d11d0ac52c397e342e25ae6dc5da412115d469d304bf4dd86404910160405180910390a150565b5f81815260026020526040902080546001600160a01b031633146105505760405162461bcd60e51b81526020600482015260116024820152702737ba103837b634b1bc903437b63232b960791b6044820152606401610216565b600381015460ff166105965760405162461bcd60e51b815260206004820152600f60248201526e506f6c69637920696e61637469766560881b6044820152606401610216565b6003810154610100900460ff16156105e65760405162461bcd60e51b815260206004820152601360248201527210db185a5b48185b1c9958591e48199a5b1959606a1b6044820152606401610216565b60038101805461ff0019166101001790556040517fd100747009514b5af08dac21004dd4e5782991ced4aae133f2269e320d6b0dee906102af9084815260200190565b5f60208284031215610639575f5ffd5b5035919050565b5f6001820161065d57634e487b7160e01b5f52601160045260245ffd5b506001019056fea26469706673582212207b994f6cfb3e17a7566a3d6671ef6dc5167fb9b4c3b64f681b21b89ebad1cc3264736f6c634300081c0033",
  "linkReferences": {},
  "deployedLinkReferences": {},
  "immutableReferences": {},
  "inputSourceName": "project/contracts/Insurance.sol",
  "buildInfoId": "solc-0_8_28-a3c29eed28a6ef63aec4e7703ccc3dcb94662c1b"
}