{
  "_format": "hh3-artifact-1",
  "contractName": "Uber",
  "sourceName": "contracts/Uber.sol",
  "abi": [
    {
      "anonymous": false,
      "inputs": [
        {
          "indexed": false,
          "internalType": "address",
          "name": "driver",
          "type": "address"
        }
      ],
      "name": "DriverRegistered",
      "type": "event"
    },
    {
      "anonymous": false,
      "inputs": [
        {
          "indexed": false,
          "internalType": "uint256",
          "name": "rideId",
          "type": "uint256"
        },
        {
          "indexed": false,
          "internalType": "address",
          "name": "driver",
          "type": "address"
        }
      ],
      "name": "RideAccepted",
      "type": "event"
    },
    {
      "anonymous": false,
      "inputs": [
        {
          "indexed": false,
          "internalType": "uint256",
          "name": "rideId",
          "type": "uint256"
        }
      ],
      "name": "RideCompleted",
      "type": "event"
    },
    {
      "anonymous": false,
      "inputs": [
        {
          "indexed": false,
          "internalType": "uint256",
          "name": "rideId",
          "type": "uint256"
        },
        {
          "indexed": false,
          "internalType": "address",
          "name": "rider",
          "type": "address"
        },
        {
          "indexed": false,
          "internalType": "uint256",
          "name": "fare",
          "type": "uint256"
        }
      ],
      "name": "RideRequested",
      "type": "event"
    },
    {
      "inputs": [
        {
          "internalType": "uint256",
          "name": "rideId",
          "type": "uint256"
        }
      ],
      "name": "acceptRide",
      "outputs": [],
      "stateMutability": "nonpayable",
      "type": "function"
    },
    {
      "inputs": [
        {
          "internalType": "uint256",
          "name": "rideId",
          "type": "uint256"
        }
      ],
      "name": "completeRide",
      "outputs": [],
      "stateMutability": "nonpayable",
      "type": "function"
    },
    {
      "inputs": [],
      "name": "registerDriver",
      "outputs": [],
      "stateMutability": "nonpayable",
      "type": "function"
    },
    {
      "inputs": [
        {
          "internalType": "address",
          "name": "",
          "type": "address"
        }
      ],
      "name": "registeredDrivers",
      "outputs": [
        {
          "internalType": "bool",
          "name": "",
          "type": "bool"
        }
      ],
      "stateMutability": "view",
      "type": "function"
    },
    {
      "inputs": [],
      "name": "requestRide",
      "outputs": [],
      "stateMutability": "payable",
      "type": "function"
    },
    {
      "inputs": [],
      "name": "rideCounter",
      "outputs": [
        {
          "internalType": "uint256",
          "name": "",
          "type": "uint256"
        }
      ],
      "stateMutability": "view",
      "type": "function"
    },
    {
      "inputs": [
        {
          "internalType": "uint256",
          "name": "",
          "type": "uint256"
        }
      ],
      "name": "rides",
      "outputs": [
        {
          "internalType": "address",
          "name": "rider",
          "type": "address"
        },
        {
          "internalType": "address",
          "name": "driver",
          "type": "address"
        },
        {
          "internalType": "uint256",
          "name": "fare",
          "type": "uint256"
        },
        {
          "internalType": "enum Uber.RideStatus",
          "name": "status",
          "type": "uint8"
        }
      ],
      "stateMutability": "view",
      "type": "function"
    }
  ],
  "bytecode": "0x6080604052348015600e575f5ffd5b506106878061001c5f395ff3fe60806040526004361061006e575f3560e01c8063b10fefc01161004c578063b10fefc01461012d578063c416dd0b1461014f578063c51562cb1461016e578063d97c0de11461018d575f5ffd5b806309e7fa351461007257806316e21901146100b55780635205f112146100cb575b5f5ffd5b34801561007d575f5ffd5b506100a061008c36600461058b565b60026020525f908152604090205460ff1681565b60405190151581526020015b60405180910390f35b3480156100c0575f5ffd5b506100c9610195565b005b3480156100d6575f5ffd5b5061011d6100e53660046105b8565b600160208190525f918252604090912080549181015460028201546003909201546001600160a01b0393841693909116919060ff1684565b6040516100ac94939291906105e3565b348015610138575f5ffd5b506101415f5481565b6040519081526020016100ac565b34801561015a575f5ffd5b506100c96101693660046105b8565b6101e5565b348015610179575f5ffd5b506100c96101883660046105b8565b610336565b6100c9610450565b335f81815260026020908152604091829020805460ff1916600117905590519182527fbe5e7a1c543800c6abb49749a131598b050660d403a09b2e31318c2048c00d7491015b60405180910390a1565b5f818152600160208190526040909120908101546001600160a01b031633146102555760405162461bcd60e51b815260206004820152601860248201527f4f6e6c79206472697665722063616e20636f6d706c657465000000000000000060448201526064015b60405180910390fd5b600160038083015460ff1690811115610270576102706105cf565b146102af5760405162461bcd60e51b815260206004820152600f60248201526e52696465206e6f742061637469766560881b604482015260640161024c565b60038101805460ff191660029081179091556001820154908201546040516001600160a01b03909216916108fc82150291905f818181858888f193505050501580156102fd573d5f5f3e3d5ffd5b506040518281527f63e5b4bf8bc6c9cf867e6cc4d53f654c1f0365d975100e04129de6383f8c4b23906020015b60405180910390a15050565b335f9081526002602052604090205460ff1661038c5760405162461bcd60e51b81526020600482015260156024820152742737ba103932b3b4b9ba32b932b210323934bb32b960591b604482015260640161024c565b5f8181526001602052604081209060038083015460ff16908111156103b3576103b36105cf565b146103f55760405162461bcd60e51b815260206004820152601260248201527152696465206e6f7420617661696c61626c6560701b604482015260640161024c565b600180820180546001600160a01b0319163317905560038201805460ff191682800217905550604080518381523360208201527fcb890c33fd108e736800f548e422bb587b58384dea0bbc2849e4b904ce455bbc910161032a565b5f341161049f5760405162461bcd60e51b815260206004820152601b60248201527f46617265206d7573742062652067726561746572207468616e20300000000000604482015260640161024c565b5f805490806104ad8361062d565b9091555050604080516080810182523381525f6020820181905234928201929092529060608201525f8054815260016020818152604092839020845181546001600160a01b03199081166001600160a01b039283161783559286015182850180549094169116179091559183015160028301556060830151600380840180549293909260ff1916918490811115610546576105466105cf565b0217905550505f546040805191825233602083015234908201527f54ae564e5bca6e1fe8b8da57b977869728091509f6fda4b7ca70f5f103196de491506060016101db565b5f6020828403121561059b575f5ffd5b81356001600160a01b03811681146105b1575f5ffd5b9392505050565b5f602082840312156105c8575f5ffd5b5035919050565b634e487b7160e01b5f52602160045260245ffd5b6001600160a01b0385811682528416602082015260408101839052608081016004831061061e57634e487b7160e01b5f52602160045260245ffd5b82606083015295945050505050565b5f6001820161064a57634e487b7160e01b5f52601160045260245ffd5b506001019056fea2646970667358221220d6e0d22a944c40c42697c3f29d79d618ecda1cac174353a665482870931729cc64736f6c634300081c0033",
  "linkReferences": {},
  "deployedLinkReferences": {},
  "immutableReferences": {},
  "inputSourceName": "project/contracts/Uber.sol",
  "buildInfoId": "solc-0_8_28-ec7f6274829a834922b6cfd40c535352fbf1b5a0"
}